{
  "contracts/Voucher.sol": {
    "Voucher": {
      "abi": [
        {
          "inputs": [],
          "stateMutability": "nonpayable",
          "type": "constructor"
        },
        {
          "inputs": [
            {
              "internalType": "string",
              "name": "_code",
              "type": "string"
            }
          ],
          "name": "claimVoucher",
          "outputs": [],
          "stateMutability": "nonpayable",
          "type": "function"
        },
        {
          "inputs": [
            {
              "internalType": "bytes32",
              "name": "_codeHash",
              "type": "bytes32"
            },
            {
              "internalType": "uint256",
              "name": "_etherAmount",
              "type": "uint256"
            }
          ],
          "name": "createVoucher",
          "outputs": [],
          "stateMutability": "payable",
          "type": "function"
        },
        {
          "inputs": [],
          "name": "owner",
          "outputs": [
            {
              "internalType": "address",
              "name": "",
              "type": "address"
            }
          ],
          "stateMutability": "view",
          "type": "function"
        },
        {
          "inputs": [
            {
              "internalType": "bytes32",
              "name": "",
              "type": "bytes32"
            }
          ],
          "name": "vouchers",
          "outputs": [
            {
              "internalType": "uint256",
              "name": "",
              "type": "uint256"
            }
          ],
          "stateMutability": "view",
          "type": "function"
        },
        {
          "inputs": [],
          "name": "withdraw",
          "outputs": [],
          "stateMutability": "nonpayable",
          "type": "function"
        },
        {
          "stateMutability": "payable",
          "type": "receive"
        }
      ],
      "evm": {
        "bytecode": {
          "linkReferences": {},
          "object": "608060405234801561001057600080fd5b50336000806101000a81548173ffffffffffffffffffffffffffffffffffffffff021916908373ffffffffffffffffffffffffffffffffffffffff160217905550610b6d806100606000396000f3fe60806040526004361061004e5760003560e01c80633ccfd60b1461005a5780638da5cb5b14610071578063a6f936ac1461009c578063e4c96ac4146100b8578063e9698d39146100f557610055565b3661005557005b600080fd5b34801561006657600080fd5b5061006f61011e565b005b34801561007d57600080fd5b50610086610215565b60405161009391906104bd565b60405180910390f35b6100b660048036038101906100b19190610558565b610239565b005b3480156100c457600080fd5b506100df60048036038101906100da9190610598565b610336565b6040516100ec91906105d4565b60405180910390f35b34801561010157600080fd5b5061011c60048036038101906101179190610735565b61034e565b005b60008054906101000a900473ffffffffffffffffffffffffffffffffffffffff1673ffffffffffffffffffffffffffffffffffffffff163373ffffffffffffffffffffffffffffffffffffffff16146101ac576040517f08c379a00000000000000000000000000000000000000000000000000000000081526004016101a390610801565b60405180910390fd5b60008054906101000a900473ffffffffffffffffffffffffffffffffffffffff1673ffffffffffffffffffffffffffffffffffffffff166108fc479081150290604051600060405180830381858888f19350505050158015610212573d6000803e3d6000fd5b50565b60008054906101000a900473ffffffffffffffffffffffffffffffffffffffff1681565b6000811161027c576040517f08c379a000000000000000000000000000000000000000000000000000000000815260040161027390610893565b60405180910390fd5b600081905060006001600085815260200190815260200160002054146102d7576040517f08c379a00000000000000000000000000000000000000000000000000000000081526004016102ce906108ff565b60405180910390fd5b803414610319576040517f08c379a0000000000000000000000000000000000000000000000000000000008152600401610310906109b7565b60405180910390fd5b806001600085815260200190815260200160002081905550505050565b60016020528060005260406000206000915090505481565b6000816040516020016103619190610a48565b604051602081830303815290604052805190602001209050600060016000838152602001908152602001600020549050600081116103d4576040517f08c379a00000000000000000000000000000000000000000000000000000000081526004016103cb90610aab565b60405180910390fd5b80471015610417576040517f08c379a000000000000000000000000000000000000000000000000000000000815260040161040e90610b17565b60405180910390fd5b600060016000848152602001908152602001600020819055503373ffffffffffffffffffffffffffffffffffffffff166108fc829081150290604051600060405180830381858888f19350505050158015610476573d6000803e3d6000fd5b50505050565b600073ffffffffffffffffffffffffffffffffffffffff82169050919050565b60006104a78261047c565b9050919050565b6104b78161049c565b82525050565b60006020820190506104d260008301846104ae565b92915050565b6000604051905090565b600080fd5b600080fd5b6000819050919050565b6104ff816104ec565b811461050a57600080fd5b50565b60008135905061051c816104f6565b92915050565b6000819050919050565b61053581610522565b811461054057600080fd5b50565b6000813590506105528161052c565b92915050565b6000806040838503121561056f5761056e6104e2565b5b600061057d8582860161050d565b925050602061058e85828601610543565b9150509250929050565b6000602082840312156105ae576105ad6104e2565b5b60006105bc8482850161050d565b91505092915050565b6105ce81610522565b82525050565b60006020820190506105e960008301846105c5565b92915050565b600080fd5b600080fd5b6000601f19601f8301169050919050565b7f4e487b7100000000000000000000000000000000000000000000000000000000600052604160045260246000fd5b610642826105f9565b810181811067ffffffffffffffff821117156106615761066061060a565b5b80604052505050565b60006106746104d8565b90506106808282610639565b919050565b600067ffffffffffffffff8211156106a05761069f61060a565b5b6106a9826105f9565b9050602081019050919050565b82818337600083830152505050565b60006106d86106d384610685565b61066a565b9050828152602081018484840111156106f4576106f36105f4565b5b6106ff8482856106b6565b509392505050565b600082601f83011261071c5761071b6105ef565b5b813561072c8482602086016106c5565b91505092915050565b60006020828403121561074b5761074a6104e2565b5b600082013567ffffffffffffffff811115610769576107686104e7565b5b61077584828501610707565b91505092915050565b600082825260208201905092915050565b7f5365756c206c652070726f70726965746169726520706575742065786563757460008201527f6572206365747465206f7065726174696f6e0000000000000000000000000000602082015250565b60006107eb60328361077e565b91506107f68261078f565b604082019050919050565b6000602082019050818103600083015261081a816107de565b9050919050565b7f4c65206d6f6e74616e7420646f6974206574726520737570657269657572206160008201527f2030000000000000000000000000000000000000000000000000000000000000602082015250565b600061087d60228361077e565b915061088882610821565b604082019050919050565b600060208201905081810360008301526108ac81610870565b9050919050565b7f566f75636865722064656a61206578697374616e740000000000000000000000600082015250565b60006108e960158361077e565b91506108f4826108b3565b602082019050919050565b60006020820190508181036000830152610918816108dc565b9050919050565b7f4c65206d6f6e74616e74206427657468657220656e766f7965206e6520636f7260008201527f726573706f6e6420706173206175206d6f6e74616e7420647520766f7563686560208201527f7200000000000000000000000000000000000000000000000000000000000000604082015250565b60006109a160418361077e565b91506109ac8261091f565b606082019050919050565b600060208201905081810360008301526109d081610994565b9050919050565b600081519050919050565b600081905092915050565b60005b83811015610a0b5780820151818401526020810190506109f0565b60008484015250505050565b6000610a22826109d7565b610a2c81856109e2565b9350610a3c8185602086016109ed565b80840191505092915050565b6000610a548284610a17565b915081905092915050565b7f566f756368657220696e76616c696465206f752064656a61207574696c697365600082015250565b6000610a9560208361077e565b9150610aa082610a5f565b602082019050919050565b60006020820190508181036000830152610ac481610a88565b9050919050565b7f436f6e7472617420696e737566666973616d6d656e742066696e616e63650000600082015250565b6000610b01601e8361077e565b9150610b0c82610acb565b602082019050919050565b60006020820190508181036000830152610b3081610af4565b905091905056fea2646970667358221220815b205d8e6245f8c9c1ea00b1959bb6db45d1e7fb0f73a83e4ecbc3c7ddc1d464736f6c63430008180033",
          "opcodes": "PUSH1 0x80 PUSH1 0x40 MSTORE CALLVALUE DUP1 ISZERO PUSH2 0x10 JUMPI PUSH1 0x0 DUP1 REVERT JUMPDEST POP CALLER PUSH1 0x0 DUP1 PUSH2 0x100 EXP DUP2 SLOAD DUP2 PUSH20 0xFFFFFFFFFFFFFFFFFFFFFFFFFFFFFFFFFFFFFFFF MUL NOT AND SWAP1 DUP4 PUSH20 0xFFFFFFFFFFFFFFFFFFFFFFFFFFFFFFFFFFFFFFFF AND MUL OR SWAP1 SSTORE POP PUSH2 0xB6D DUP1 PUSH2 0x60 PUSH1 0x0 CODECOPY PUSH1 0x0 RETURN INVALID PUSH1 0x80 PUSH1 0x40 MSTORE PUSH1 0x4 CALLDATASIZE LT PUSH2 0x4E JUMPI PUSH1 0x0 CALLDATALOAD PUSH1 0xE0 SHR DUP1 PUSH4 0x3CCFD60B EQ PUSH2 0x5A JUMPI DUP1 PUSH4 0x8DA5CB5B EQ PUSH2 0x71 JUMPI DUP1 PUSH4 0xA6F936AC EQ PUSH2 0x9C JUMPI DUP1 PUSH4 0xE4C96AC4 EQ PUSH2 0xB8 JUMPI DUP1 PUSH4 0xE9698D39 EQ PUSH2 0xF5 JUMPI PUSH2 0x55 JUMP JUMPDEST CALLDATASIZE PUSH2 0x55 JUMPI STOP JUMPDEST PUSH1 0x0 DUP1 REVERT JUMPDEST CALLVALUE DUP1 ISZERO PUSH2 0x66 JUMPI PUSH1 0x0 DUP1 REVERT JUMPDEST POP PUSH2 0x6F PUSH2 0x11E JUMP JUMPDEST STOP JUMPDEST CALLVALUE DUP1 ISZERO PUSH2 0x7D JUMPI PUSH1 0x0 DUP1 REVERT JUMPDEST POP PUSH2 0x86 PUSH2 0x215 JUMP JUMPDEST PUSH1 0x40 MLOAD PUSH2 0x93 SWAP2 SWAP1 PUSH2 0x4BD JUMP JUMPDEST PUSH1 0x40 MLOAD DUP1 SWAP2 SUB SWAP1 RETURN JUMPDEST PUSH2 0xB6 PUSH1 0x4 DUP1 CALLDATASIZE SUB DUP2 ADD SWAP1 PUSH2 0xB1 SWAP2 SWAP1 PUSH2 0x558 JUMP JUMPDEST PUSH2 0x239 JUMP JUMPDEST STOP JUMPDEST CALLVALUE DUP1 ISZERO PUSH2 0xC4 JUMPI PUSH1 0x0 DUP1 REVERT JUMPDEST POP PUSH2 0xDF PUSH1 0x4 DUP1 CALLDATASIZE SUB DUP2 ADD SWAP1 PUSH2 0xDA SWAP2 SWAP1 PUSH2 0x598 JUMP JUMPDEST PUSH2 0x336 JUMP JUMPDEST PUSH1 0x40 MLOAD PUSH2 0xEC SWAP2 SWAP1 PUSH2 0x5D4 JUMP JUMPDEST PUSH1 0x40 MLOAD DUP1 SWAP2 SUB SWAP1 RETURN JUMPDEST CALLVALUE DUP1 ISZERO PUSH2 0x101 JUMPI PUSH1 0x0 DUP1 REVERT JUMPDEST POP PUSH2 0x11C PUSH1 0x4 DUP1 CALLDATASIZE SUB DUP2 ADD SWAP1 PUSH2 0x117 SWAP2 SWAP1 PUSH2 0x735 JUMP JUMPDEST PUSH2 0x34E JUMP JUMPDEST STOP JUMPDEST PUSH1 0x0 DUP1 SLOAD SWAP1 PUSH2 0x100 EXP SWAP1 DIV PUSH20 0xFFFFFFFFFFFFFFFFFFFFFFFFFFFFFFFFFFFFFFFF AND PUSH20 0xFFFFFFFFFFFFFFFFFFFFFFFFFFFFFFFFFFFFFFFF AND CALLER PUSH20 0xFFFFFFFFFFFFFFFFFFFFFFFFFFFFFFFFFFFFFFFF AND EQ PUSH2 0x1AC JUMPI PUSH1 0x40 MLOAD PUSH32 0x8C379A000000000000000000000000000000000000000000000000000000000 DUP2 MSTORE PUSH1 0x4 ADD PUSH2 0x1A3 SWAP1 PUSH2 0x801 JUMP JUMPDEST PUSH1 0x40 MLOAD DUP1 SWAP2 SUB SWAP1 REVERT JUMPDEST PUSH1 0x0 DUP1 SLOAD SWAP1 PUSH2 0x100 EXP SWAP1 DIV PUSH20 0xFFFFFFFFFFFFFFFFFFFFFFFFFFFFFFFFFFFFFFFF AND PUSH20 0xFFFFFFFFFFFFFFFFFFFFFFFFFFFFFFFFFFFFFFFF AND PUSH2 0x8FC SELFBALANCE SWAP1 DUP2 ISZERO MUL SWAP1 PUSH1 0x40 MLOAD PUSH1 0x0 PUSH1 0x40 MLOAD DUP1 DUP4 SUB DUP2 DUP6 DUP9 DUP9 CALL SWAP4 POP POP POP POP ISZERO DUP1 ISZERO PUSH2 0x212 JUMPI RETURNDATASIZE PUSH1 0x0 DUP1 RETURNDATACOPY RETURNDATASIZE PUSH1 0x0 REVERT JUMPDEST POP JUMP JUMPDEST PUSH1 0x0 DUP1 SLOAD SWAP1 PUSH2 0x100 EXP SWAP1 DIV PUSH20 0xFFFFFFFFFFFFFFFFFFFFFFFFFFFFFFFFFFFFFFFF AND DUP2 JUMP JUMPDEST PUSH1 0x0 DUP2 GT PUSH2 0x27C JUMPI PUSH1 0x40 MLOAD PUSH32 0x8C379A000000000000000000000000000000000000000000000000000000000 DUP2 MSTORE PUSH1 0x4 ADD PUSH2 0x273 SWAP1 PUSH2 0x893 JUMP JUMPDEST PUSH1 0x40 MLOAD DUP1 SWAP2 SUB SWAP1 REVERT JUMPDEST PUSH1 0x0 DUP2 SWAP1 POP PUSH1 0x0 PUSH1 0x1 PUSH1 0x0 DUP6 DUP2 MSTORE PUSH1 0x20 ADD SWAP1 DUP2 MSTORE PUSH1 0x20 ADD PUSH1 0x0 KECCAK256 SLOAD EQ PUSH2 0x2D7 JUMPI PUSH1 0x40 MLOAD PUSH32 0x8C379A000000000000000000000000000000000000000000000000000000000 DUP2 MSTORE PUSH1 0x4 ADD PUSH2 0x2CE SWAP1 PUSH2 0x8FF JUMP JUMPDEST PUSH1 0x40 MLOAD DUP1 SWAP2 SUB SWAP1 REVERT JUMPDEST DUP1 CALLVALUE EQ PUSH2 0x319 JUMPI PUSH1 0x40 MLOAD PUSH32 0x8C379A000000000000000000000000000000000000000000000000000000000 DUP2 MSTORE PUSH1 0x4 ADD PUSH2 0x310 SWAP1 PUSH2 0x9B7 JUMP JUMPDEST PUSH1 0x40 MLOAD DUP1 SWAP2 SUB SWAP1 REVERT JUMPDEST DUP1 PUSH1 0x1 PUSH1 0x0 DUP6 DUP2 MSTORE PUSH1 0x20 ADD SWAP1 DUP2 MSTORE PUSH1 0x20 ADD PUSH1 0x0 KECCAK256 DUP2 SWAP1 SSTORE POP POP POP POP JUMP JUMPDEST PUSH1 0x1 PUSH1 0x20 MSTORE DUP1 PUSH1 0x0 MSTORE PUSH1 0x40 PUSH1 0x0 KECCAK256 PUSH1 0x0 SWAP2 POP SWAP1 POP SLOAD DUP2 JUMP JUMPDEST PUSH1 0x0 DUP2 PUSH1 0x40 MLOAD PUSH1 0x20 ADD PUSH2 0x361 SWAP2 SWAP1 PUSH2 0xA48 JUMP JUMPDEST PUSH1 0x40 MLOAD PUSH1 0x20 DUP2 DUP4 SUB SUB DUP2 MSTORE SWAP1 PUSH1 0x40 MSTORE DUP1 MLOAD SWAP1 PUSH1 0x20 ADD KECCAK256 SWAP1 POP PUSH1 0x0 PUSH1 0x1 PUSH1 0x0 DUP4 DUP2 MSTORE PUSH1 0x20 ADD SWAP1 DUP2 MSTORE PUSH1 0x20 ADD PUSH1 0x0 KECCAK256 SLOAD SWAP1 POP PUSH1 0x0 DUP2 GT PUSH2 0x3D4 JUMPI PUSH1 0x40 MLOAD PUSH32 0x8C379A000000000000000000000000000000000000000000000000000000000 DUP2 MSTORE PUSH1 0x4 ADD PUSH2 0x3CB SWAP1 PUSH2 0xAAB JUMP JUMPDEST PUSH1 0x40 MLOAD DUP1 SWAP2 SUB SWAP1 REVERT JUMPDEST DUP1 SELFBALANCE LT ISZERO PUSH2 0x417 JUMPI PUSH1 0x40 MLOAD PUSH32 0x8C379A000000000000000000000000000000000000000000000000000000000 DUP2 MSTORE PUSH1 0x4 ADD PUSH2 0x40E SWAP1 PUSH2 0xB17 JUMP JUMPDEST PUSH1 0x40 MLOAD DUP1 SWAP2 SUB SWAP1 REVERT JUMPDEST PUSH1 0x0 PUSH1 0x1 PUSH1 0x0 DUP5 DUP2 MSTORE PUSH1 0x20 ADD SWAP1 DUP2 MSTORE PUSH1 0x20 ADD PUSH1 0x0 KECCAK256 DUP2 SWAP1 SSTORE POP CALLER PUSH20 0xFFFFFFFFFFFFFFFFFFFFFFFFFFFFFFFFFFFFFFFF AND PUSH2 0x8FC DUP3 SWAP1 DUP2 ISZERO MUL SWAP1 PUSH1 0x40 MLOAD PUSH1 0x0 PUSH1 0x40 MLOAD DUP1 DUP4 SUB DUP2 DUP6 DUP9 DUP9 CALL SWAP4 POP POP POP POP ISZERO DUP1 ISZERO PUSH2 0x476 JUMPI RETURNDATASIZE PUSH1 0x0 DUP1 RETURNDATACOPY RETURNDATASIZE PUSH1 0x0 REVERT JUMPDEST POP POP POP POP JUMP JUMPDEST PUSH1 0x0 PUSH20 0xFFFFFFFFFFFFFFFFFFFFFFFFFFFFFFFFFFFFFFFF DUP3 AND SWAP1 POP SWAP2 SWAP1 POP JUMP JUMPDEST PUSH1 0x0 PUSH2 0x4A7 DUP3 PUSH2 0x47C JUMP JUMPDEST SWAP1 POP SWAP2 SWAP1 POP JUMP JUMPDEST PUSH2 0x4B7 DUP2 PUSH2 0x49C JUMP JUMPDEST DUP3 MSTORE POP POP JUMP JUMPDEST PUSH1 0x0 PUSH1 0x20 DUP3 ADD SWAP1 POP PUSH2 0x4D2 PUSH1 0x0 DUP4 ADD DUP5 PUSH2 0x4AE JUMP JUMPDEST SWAP3 SWAP2 POP POP JUMP JUMPDEST PUSH1 0x0 PUSH1 0x40 MLOAD SWAP1 POP SWAP1 JUMP JUMPDEST PUSH1 0x0 DUP1 REVERT JUMPDEST PUSH1 0x0 DUP1 REVERT JUMPDEST PUSH1 0x0 DUP2 SWAP1 POP SWAP2 SWAP1 POP JUMP JUMPDEST PUSH2 0x4FF DUP2 PUSH2 0x4EC JUMP JUMPDEST DUP2 EQ PUSH2 0x50A JUMPI PUSH1 0x0 DUP1 REVERT JUMPDEST POP JUMP JUMPDEST PUSH1 0x0 DUP2 CALLDATALOAD SWAP1 POP PUSH2 0x51C DUP2 PUSH2 0x4F6 JUMP JUMPDEST SWAP3 SWAP2 POP POP JUMP JUMPDEST PUSH1 0x0 DUP2 SWAP1 POP SWAP2 SWAP1 POP JUMP JUMPDEST PUSH2 0x535 DUP2 PUSH2 0x522 JUMP JUMPDEST DUP2 EQ PUSH2 0x540 JUMPI PUSH1 0x0 DUP1 REVERT JUMPDEST POP JUMP JUMPDEST PUSH1 0x0 DUP2 CALLDATALOAD SWAP1 POP PUSH2 0x552 DUP2 PUSH2 0x52C JUMP JUMPDEST SWAP3 SWAP2 POP POP JUMP JUMPDEST PUSH1 0x0 DUP1 PUSH1 0x40 DUP4 DUP6 SUB SLT ISZERO PUSH2 0x56F JUMPI PUSH2 0x56E PUSH2 0x4E2 JUMP JUMPDEST JUMPDEST PUSH1 0x0 PUSH2 0x57D DUP6 DUP3 DUP7 ADD PUSH2 0x50D JUMP JUMPDEST SWAP3 POP POP PUSH1 0x20 PUSH2 0x58E DUP6 DUP3 DUP7 ADD PUSH2 0x543 JUMP JUMPDEST SWAP2 POP POP SWAP3 POP SWAP3 SWAP1 POP JUMP JUMPDEST PUSH1 0x0 PUSH1 0x20 DUP3 DUP5 SUB SLT ISZERO PUSH2 0x5AE JUMPI PUSH2 0x5AD PUSH2 0x4E2 JUMP JUMPDEST JUMPDEST PUSH1 0x0 PUSH2 0x5BC DUP5 DUP3 DUP6 ADD PUSH2 0x50D JUMP JUMPDEST SWAP2 POP POP SWAP3 SWAP2 POP POP JUMP JUMPDEST PUSH2 0x5CE DUP2 PUSH2 0x522 JUMP JUMPDEST DUP3 MSTORE POP POP JUMP JUMPDEST PUSH1 0x0 PUSH1 0x20 DUP3 ADD SWAP1 POP PUSH2 0x5E9 PUSH1 0x0 DUP4 ADD DUP5 PUSH2 0x5C5 JUMP JUMPDEST SWAP3 SWAP2 POP POP JUMP JUMPDEST PUSH1 0x0 DUP1 REVERT JUMPDEST PUSH1 0x0 DUP1 REVERT JUMPDEST PUSH1 0x0 PUSH1 0x1F NOT PUSH1 0x1F DUP4 ADD AND SWAP1 POP SWAP2 SWAP1 POP JUMP JUMPDEST PUSH32 0x4E487B7100000000000000000000000000000000000000000000000000000000 PUSH1 0x0 MSTORE PUSH1 0x41 PUSH1 0x4 MSTORE PUSH1 0x24 PUSH1 0x0 REVERT JUMPDEST PUSH2 0x642 DUP3 PUSH2 0x5F9 JUMP JUMPDEST DUP2 ADD DUP2 DUP2 LT PUSH8 0xFFFFFFFFFFFFFFFF DUP3 GT OR ISZERO PUSH2 0x661 JUMPI PUSH2 0x660 PUSH2 0x60A JUMP JUMPDEST JUMPDEST DUP1 PUSH1 0x40 MSTORE POP POP POP JUMP JUMPDEST PUSH1 0x0 PUSH2 0x674 PUSH2 0x4D8 JUMP JUMPDEST SWAP1 POP PUSH2 0x680 DUP3 DUP3 PUSH2 0x639 JUMP JUMPDEST SWAP2 SWAP1 POP JUMP JUMPDEST PUSH1 0x0 PUSH8 0xFFFFFFFFFFFFFFFF DUP3 GT ISZERO PUSH2 0x6A0 JUMPI PUSH2 0x69F PUSH2 0x60A JUMP JUMPDEST JUMPDEST PUSH2 0x6A9 DUP3 PUSH2 0x5F9 JUMP JUMPDEST SWAP1 POP PUSH1 0x20 DUP2 ADD SWAP1 POP SWAP2 SWAP1 POP JUMP JUMPDEST DUP3 DUP2 DUP4 CALLDATACOPY PUSH1 0x0 DUP4 DUP4 ADD MSTORE POP POP POP JUMP JUMPDEST PUSH1 0x0 PUSH2 0x6D8 PUSH2 0x6D3 DUP5 PUSH2 0x685 JUMP JUMPDEST PUSH2 0x66A JUMP JUMPDEST SWAP1 POP DUP3 DUP2 MSTORE PUSH1 0x20 DUP2 ADD DUP5 DUP5 DUP5 ADD GT ISZERO PUSH2 0x6F4 JUMPI PUSH2 0x6F3 PUSH2 0x5F4 JUMP JUMPDEST JUMPDEST PUSH2 0x6FF DUP5 DUP3 DUP6 PUSH2 0x6B6 JUMP JUMPDEST POP SWAP4 SWAP3 POP POP POP JUMP JUMPDEST PUSH1 0x0 DUP3 PUSH1 0x1F DUP4 ADD SLT PUSH2 0x71C JUMPI PUSH2 0x71B PUSH2 0x5EF JUMP JUMPDEST JUMPDEST DUP2 CALLDATALOAD PUSH2 0x72C DUP5 DUP3 PUSH1 0x20 DUP7 ADD PUSH2 0x6C5 JUMP JUMPDEST SWAP2 POP POP SWAP3 SWAP2 POP POP JUMP JUMPDEST PUSH1 0x0 PUSH1 0x20 DUP3 DUP5 SUB SLT ISZERO PUSH2 0x74B JUMPI PUSH2 0x74A PUSH2 0x4E2 JUMP JUMPDEST JUMPDEST PUSH1 0x0 DUP3 ADD CALLDATALOAD PUSH8 0xFFFFFFFFFFFFFFFF DUP2 GT ISZERO PUSH2 0x769 JUMPI PUSH2 0x768 PUSH2 0x4E7 JUMP JUMPDEST JUMPDEST PUSH2 0x775 DUP5 DUP3 DUP6 ADD PUSH2 0x707 JUMP JUMPDEST SWAP2 POP POP SWAP3 SWAP2 POP POP JUMP JUMPDEST PUSH1 0x0 DUP3 DUP3 MSTORE PUSH1 0x20 DUP3 ADD SWAP1 POP SWAP3 SWAP2 POP POP JUMP JUMPDEST PUSH32 0x5365756C206C652070726F707269657461697265207065757420657865637574 PUSH1 0x0 DUP3 ADD MSTORE PUSH32 0x6572206365747465206F7065726174696F6E0000000000000000000000000000 PUSH1 0x20 DUP3 ADD MSTORE POP JUMP JUMPDEST PUSH1 0x0 PUSH2 0x7EB PUSH1 0x32 DUP4 PUSH2 0x77E JUMP JUMPDEST SWAP2 POP PUSH2 0x7F6 DUP3 PUSH2 0x78F JUMP JUMPDEST PUSH1 0x40 DUP3 ADD SWAP1 POP SWAP2 SWAP1 POP JUMP JUMPDEST PUSH1 0x0 PUSH1 0x20 DUP3 ADD SWAP1 POP DUP2 DUP2 SUB PUSH1 0x0 DUP4 ADD MSTORE PUSH2 0x81A DUP2 PUSH2 0x7DE JUMP JUMPDEST SWAP1 POP SWAP2 SWAP1 POP JUMP JUMPDEST PUSH32 0x4C65206D6F6E74616E7420646F69742065747265207375706572696575722061 PUSH1 0x0 DUP3 ADD MSTORE PUSH32 0x2030000000000000000000000000000000000000000000000000000000000000 PUSH1 0x20 DUP3 ADD MSTORE POP JUMP JUMPDEST PUSH1 0x0 PUSH2 0x87D PUSH1 0x22 DUP4 PUSH2 0x77E JUMP JUMPDEST SWAP2 POP PUSH2 0x888 DUP3 PUSH2 0x821 JUMP JUMPDEST PUSH1 0x40 DUP3 ADD SWAP1 POP SWAP2 SWAP1 POP JUMP JUMPDEST PUSH1 0x0 PUSH1 0x20 DUP3 ADD SWAP1 POP DUP2 DUP2 SUB PUSH1 0x0 DUP4 ADD MSTORE PUSH2 0x8AC DUP2 PUSH2 0x870 JUMP JUMPDEST SWAP1 POP SWAP2 SWAP1 POP JUMP JUMPDEST PUSH32 0x566F75636865722064656A61206578697374616E740000000000000000000000 PUSH1 0x0 DUP3 ADD MSTORE POP JUMP JUMPDEST PUSH1 0x0 PUSH2 0x8E9 PUSH1 0x15 DUP4 PUSH2 0x77E JUMP JUMPDEST SWAP2 POP PUSH2 0x8F4 DUP3 PUSH2 0x8B3 JUMP JUMPDEST PUSH1 0x20 DUP3 ADD SWAP1 POP SWAP2 SWAP1 POP JUMP JUMPDEST PUSH1 0x0 PUSH1 0x20 DUP3 ADD SWAP1 POP DUP2 DUP2 SUB PUSH1 0x0 DUP4 ADD MSTORE PUSH2 0x918 DUP2 PUSH2 0x8DC JUMP JUMPDEST SWAP1 POP SWAP2 SWAP1 POP JUMP JUMPDEST PUSH32 0x4C65206D6F6E74616E74206427657468657220656E766F7965206E6520636F72 PUSH1 0x0 DUP3 ADD MSTORE PUSH32 0x726573706F6E6420706173206175206D6F6E74616E7420647520766F75636865 PUSH1 0x20 DUP3 ADD MSTORE PUSH32 0x7200000000000000000000000000000000000000000000000000000000000000 PUSH1 0x40 DUP3 ADD MSTORE POP JUMP JUMPDEST PUSH1 0x0 PUSH2 0x9A1 PUSH1 0x41 DUP4 PUSH2 0x77E JUMP JUMPDEST SWAP2 POP PUSH2 0x9AC DUP3 PUSH2 0x91F JUMP JUMPDEST PUSH1 0x60 DUP3 ADD SWAP1 POP SWAP2 SWAP1 POP JUMP JUMPDEST PUSH1 0x0 PUSH1 0x20 DUP3 ADD SWAP1 POP DUP2 DUP2 SUB PUSH1 0x0 DUP4 ADD MSTORE PUSH2 0x9D0 DUP2 PUSH2 0x994 JUMP JUMPDEST SWAP1 POP SWAP2 SWAP1 POP JUMP JUMPDEST PUSH1 0x0 DUP2 MLOAD SWAP1 POP SWAP2 SWAP1 POP JUMP JUMPDEST PUSH1 0x0 DUP2 SWAP1 POP SWAP3 SWAP2 POP POP JUMP JUMPDEST PUSH1 0x0 JUMPDEST DUP4 DUP2 LT ISZERO PUSH2 0xA0B JUMPI DUP1 DUP3 ADD MLOAD DUP2 DUP5 ADD MSTORE PUSH1 0x20 DUP2 ADD SWAP1 POP PUSH2 0x9F0 JUMP JUMPDEST PUSH1 0x0 DUP5 DUP5 ADD MSTORE POP POP POP POP JUMP JUMPDEST PUSH1 0x0 PUSH2 0xA22 DUP3 PUSH2 0x9D7 JUMP JUMPDEST PUSH2 0xA2C DUP2 DUP6 PUSH2 0x9E2 JUMP JUMPDEST SWAP4 POP PUSH2 0xA3C DUP2 DUP6 PUSH1 0x20 DUP7 ADD PUSH2 0x9ED JUMP JUMPDEST DUP1 DUP5 ADD SWAP2 POP POP SWAP3 SWAP2 POP POP JUMP JUMPDEST PUSH1 0x0 PUSH2 0xA54 DUP3 DUP5 PUSH2 0xA17 JUMP JUMPDEST SWAP2 POP DUP2 SWAP1 POP SWAP3 SWAP2 POP POP JUMP JUMPDEST PUSH32 0x566F756368657220696E76616C696465206F752064656A61207574696C697365 PUSH1 0x0 DUP3 ADD MSTORE POP JUMP JUMPDEST PUSH1 0x0 PUSH2 0xA95 PUSH1 0x20 DUP4 PUSH2 0x77E JUMP JUMPDEST SWAP2 POP PUSH2 0xAA0 DUP3 PUSH2 0xA5F JUMP JUMPDEST PUSH1 0x20 DUP3 ADD SWAP1 POP SWAP2 SWAP1 POP JUMP JUMPDEST PUSH1 0x0 PUSH1 0x20 DUP3 ADD SWAP1 POP DUP2 DUP2 SUB PUSH1 0x0 DUP4 ADD MSTORE PUSH2 0xAC4 DUP2 PUSH2 0xA88 JUMP JUMPDEST SWAP1 POP SWAP2 SWAP1 POP JUMP JUMPDEST PUSH32 0x436F6E7472617420696E737566666973616D6D656E742066696E616E63650000 PUSH1 0x0 DUP3 ADD MSTORE POP JUMP JUMPDEST PUSH1 0x0 PUSH2 0xB01 PUSH1 0x1E DUP4 PUSH2 0x77E JUMP JUMPDEST SWAP2 POP PUSH2 0xB0C DUP3 PUSH2 0xACB JUMP JUMPDEST PUSH1 0x20 DUP3 ADD SWAP1 POP SWAP2 SWAP1 POP JUMP JUMPDEST PUSH1 0x0 PUSH1 0x20 DUP3 ADD SWAP1 POP DUP2 DUP2 SUB PUSH1 0x0 DUP4 ADD MSTORE PUSH2 0xB30 DUP2 PUSH2 0xAF4 JUMP JUMPDEST SWAP1 POP SWAP2 SWAP1 POP JUMP INVALID LOG2 PUSH5 0x6970667358 0x22 SLT KECCAK256 DUP2 JUMPDEST KECCAK256 TSTORE DUP15 PUSH3 0x45F8C9 0xC1 0xEA STOP 0xB1 SWAP6 SWAP12 0xB6 0xDB GASLIMIT 0xD1 0xE7 0xFB 0xF PUSH20 0xA83E4ECBC3C7DDC1D464736F6C63430008180033 "
        },
        "methodIdentifiers": {
          "claimVoucher(string)": "e9698d39",
          "createVoucher(bytes32,uint256)": "a6f936ac",
          "owner()": "8da5cb5b",
          "vouchers(bytes32)": "e4c96ac4",
          "withdraw()": "3ccfd60b"
        }
      }
    }
  }
}